{
  "_format": "hh-sol-artifact-1",
  "contractName": "NFTINK",
  "sourceName": "contracts/NFTINK.sol",
  "abi": [
    {
      "inputs": [],
      "stateMutability": "nonpayable",
      "type": "constructor"
    },
    {
      "anonymous": false,
      "inputs": [
        {
          "indexed": true,
          "internalType": "address",
          "name": "owner",
          "type": "address"
        },
        {
          "indexed": true,
          "internalType": "address",
          "name": "approved",
          "type": "address"
        },
        {
          "indexed": true,
          "internalType": "uint256",
          "name": "tokenId",
          "type": "uint256"
        }
      ],
      "name": "Approval",
      "type": "event"
    },
    {
      "anonymous": false,
      "inputs": [
        {
          "indexed": true,
          "internalType": "address",
          "name": "owner",
          "type": "address"
        },
        {
          "indexed": true,
          "internalType": "address",
          "name": "operator",
          "type": "address"
        },
        {
          "indexed": false,
          "internalType": "bool",
          "name": "approved",
          "type": "bool"
        }
      ],
      "name": "ApprovalForAll",
      "type": "event"
    },
    {
      "anonymous": false,
      "inputs": [
        {
          "indexed": true,
          "internalType": "address",
          "name": "from",
          "type": "address"
        },
        {
          "indexed": true,
          "internalType": "address",
          "name": "to",
          "type": "address"
        },
        {
          "indexed": true,
          "internalType": "uint256",
          "name": "tokenId",
          "type": "uint256"
        }
      ],
      "name": "Transfer",
      "type": "event"
    },
    {
      "anonymous": false,
      "inputs": [
        {
          "indexed": false,
          "internalType": "uint256",
          "name": "id",
          "type": "uint256"
        },
        {
          "indexed": false,
          "internalType": "string",
          "name": "jsonUrl",
          "type": "string"
        },
        {
          "indexed": false,
          "internalType": "address",
          "name": "to",
          "type": "address"
        }
      ],
      "name": "mintedInk",
      "type": "event"
    },
    {
      "anonymous": false,
      "inputs": [
        {
          "indexed": false,
          "internalType": "uint256",
          "name": "id",
          "type": "uint256"
        },
        {
          "indexed": true,
          "internalType": "address",
          "name": "artist",
          "type": "address"
        },
        {
          "indexed": false,
          "internalType": "string",
          "name": "jsonUrl",
          "type": "string"
        },
        {
          "indexed": false,
          "internalType": "uint256",
          "name": "limit",
          "type": "uint256"
        }
      ],
      "name": "newInk",
      "type": "event"
    },
    {
      "inputs": [
        {
          "internalType": "address",
          "name": "to",
          "type": "address"
        },
        {
          "internalType": "uint256",
          "name": "tokenId",
          "type": "uint256"
        }
      ],
      "name": "approve",
      "outputs": [],
      "stateMutability": "nonpayable",
      "type": "function"
    },
    {
      "inputs": [
        {
          "internalType": "address",
          "name": "owner",
          "type": "address"
        }
      ],
      "name": "balanceOf",
      "outputs": [
        {
          "internalType": "uint256",
          "name": "",
          "type": "uint256"
        }
      ],
      "stateMutability": "view",
      "type": "function"
    },
    {
      "inputs": [],
      "name": "baseURI",
      "outputs": [
        {
          "internalType": "string",
          "name": "",
          "type": "string"
        }
      ],
      "stateMutability": "view",
      "type": "function"
    },
    {
      "inputs": [
        {
          "internalType": "string",
          "name": "jsonUrl",
          "type": "string"
        },
        {
          "internalType": "uint256",
          "name": "limit",
          "type": "uint256"
        }
      ],
      "name": "createInk",
      "outputs": [
        {
          "internalType": "uint256",
          "name": "",
          "type": "uint256"
        }
      ],
      "stateMutability": "nonpayable",
      "type": "function"
    },
    {
      "inputs": [
        {
          "internalType": "uint256",
          "name": "tokenId",
          "type": "uint256"
        }
      ],
      "name": "getApproved",
      "outputs": [
        {
          "internalType": "address",
          "name": "",
          "type": "address"
        }
      ],
      "stateMutability": "view",
      "type": "function"
    },
    {
      "inputs": [
        {
          "internalType": "uint256",
          "name": "id",
          "type": "uint256"
        }
      ],
      "name": "inkInfoById",
      "outputs": [
        {
          "internalType": "string",
          "name": "",
          "type": "string"
        },
        {
          "internalType": "address",
          "name": "",
          "type": "address"
        },
        {
          "internalType": "uint256",
          "name": "",
          "type": "uint256"
        }
      ],
      "stateMutability": "view",
      "type": "function"
    },
    {
      "inputs": [
        {
          "internalType": "string",
          "name": "jsonUrl",
          "type": "string"
        }
      ],
      "name": "inkInfoByJsonUrl",
      "outputs": [
        {
          "internalType": "uint256",
          "name": "",
          "type": "uint256"
        },
        {
          "internalType": "address",
          "name": "",
          "type": "address"
        },
        {
          "internalType": "uint256",
          "name": "",
          "type": "uint256"
        }
      ],
      "stateMutability": "view",
      "type": "function"
    },
    {
      "inputs": [
        {
          "internalType": "address",
          "name": "artist",
          "type": "address"
        },
        {
          "internalType": "uint256",
          "name": "index",
          "type": "uint256"
        }
      ],
      "name": "inkOfArtistByIndex",
      "outputs": [
        {
          "internalType": "uint256",
          "name": "",
          "type": "uint256"
        }
      ],
      "stateMutability": "view",
      "type": "function"
    },
    {
      "inputs": [
        {
          "internalType": "string",
          "name": "jsonUrl",
          "type": "string"
        },
        {
          "internalType": "uint256",
          "name": "index",
          "type": "uint256"
        }
      ],
      "name": "inkTokenByIndex",
      "outputs": [
        {
          "internalType": "uint256",
          "name": "",
          "type": "uint256"
        }
      ],
      "stateMutability": "view",
      "type": "function"
    },
    {
      "inputs": [
        {
          "internalType": "address",
          "name": "artist",
          "type": "address"
        }
      ],
      "name": "inksCreatedBy",
      "outputs": [
        {
          "internalType": "uint256",
          "name": "",
          "type": "uint256"
        }
      ],
      "stateMutability": "view",
      "type": "function"
    },
    {
      "inputs": [
        {
          "internalType": "address",
          "name": "owner",
          "type": "address"
        },
        {
          "internalType": "address",
          "name": "operator",
          "type": "address"
        }
      ],
      "name": "isApprovedForAll",
      "outputs": [
        {
          "internalType": "bool",
          "name": "",
          "type": "bool"
        }
      ],
      "stateMutability": "view",
      "type": "function"
    },
    {
      "inputs": [
        {
          "internalType": "address",
          "name": "to",
          "type": "address"
        },
        {
          "internalType": "string",
          "name": "jsonUrl",
          "type": "string"
        }
      ],
      "name": "mint",
      "outputs": [
        {
          "internalType": "uint256",
          "name": "",
          "type": "uint256"
        }
      ],
      "stateMutability": "nonpayable",
      "type": "function"
    },
    {
      "inputs": [],
      "name": "name",
      "outputs": [
        {
          "internalType": "string",
          "name": "",
          "type": "string"
        }
      ],
      "stateMutability": "view",
      "type": "function"
    },
    {
      "inputs": [
        {
          "internalType": "uint256",
          "name": "tokenId",
          "type": "uint256"
        }
      ],
      "name": "ownerOf",
      "outputs": [
        {
          "internalType": "address",
          "name": "",
          "type": "address"
        }
      ],
      "stateMutability": "view",
      "type": "function"
    },
    {
      "inputs": [
        {
          "internalType": "address",
          "name": "from",
          "type": "address"
        },
        {
          "internalType": "address",
          "name": "to",
          "type": "address"
        },
        {
          "internalType": "uint256",
          "name": "tokenId",
          "type": "uint256"
        }
      ],
      "name": "safeTransferFrom",
      "outputs": [],
      "stateMutability": "nonpayable",
      "type": "function"
    },
    {
      "inputs": [
        {
          "internalType": "address",
          "name": "from",
          "type": "address"
        },
        {
          "internalType": "address",
          "name": "to",
          "type": "address"
        },
        {
          "internalType": "uint256",
          "name": "tokenId",
          "type": "uint256"
        },
        {
          "internalType": "bytes",
          "name": "_data",
          "type": "bytes"
        }
      ],
      "name": "safeTransferFrom",
      "outputs": [],
      "stateMutability": "nonpayable",
      "type": "function"
    },
    {
      "inputs": [
        {
          "internalType": "address",
          "name": "operator",
          "type": "address"
        },
        {
          "internalType": "bool",
          "name": "approved",
          "type": "bool"
        }
      ],
      "name": "setApprovalForAll",
      "outputs": [],
      "stateMutability": "nonpayable",
      "type": "function"
    },
    {
      "inputs": [
        {
          "internalType": "bytes4",
          "name": "interfaceId",
          "type": "bytes4"
        }
      ],
      "name": "supportsInterface",
      "outputs": [
        {
          "internalType": "bool",
          "name": "",
          "type": "bool"
        }
      ],
      "stateMutability": "view",
      "type": "function"
    },
    {
      "inputs": [],
      "name": "symbol",
      "outputs": [
        {
          "internalType": "string",
          "name": "",
          "type": "string"
        }
      ],
      "stateMutability": "view",
      "type": "function"
    },
    {
      "inputs": [
        {
          "internalType": "uint256",
          "name": "index",
          "type": "uint256"
        }
      ],
      "name": "tokenByIndex",
      "outputs": [
        {
          "internalType": "uint256",
          "name": "",
          "type": "uint256"
        }
      ],
      "stateMutability": "view",
      "type": "function"
    },
    {
      "inputs": [
        {
          "internalType": "address",
          "name": "owner",
          "type": "address"
        },
        {
          "internalType": "uint256",
          "name": "index",
          "type": "uint256"
        }
      ],
      "name": "tokenOfOwnerByIndex",
      "outputs": [
        {
          "internalType": "uint256",
          "name": "",
          "type": "uint256"
        }
      ],
      "stateMutability": "view",
      "type": "function"
    },
    {
      "inputs": [
        {
          "internalType": "uint256",
          "name": "tokenId",
          "type": "uint256"
        }
      ],
      "name": "tokenURI",
      "outputs": [
        {
          "internalType": "string",
          "name": "",
          "type": "string"
        }
      ],
      "stateMutability": "view",
      "type": "function"
    },
    {
      "inputs": [],
      "name": "totalInks",
      "outputs": [
        {
          "internalType": "uint256",
          "name": "_value",
          "type": "uint256"
        }
      ],
      "stateMutability": "view",
      "type": "function"
    },
    {
      "inputs": [],
      "name": "totalSupply",
      "outputs": [
        {
          "internalType": "uint256",
          "name": "",
          "type": "uint256"
        }
      ],
      "stateMutability": "view",
      "type": "function"
    },
    {
      "inputs": [
        {
          "internalType": "address",
          "name": "from",
          "type": "address"
        },
        {
          "internalType": "address",
          "name": "to",
          "type": "address"
        },
        {
          "internalType": "uint256",
          "name": "tokenId",
          "type": "uint256"
        }
      ],
      "name": "transferFrom",
      "outputs": [],
      "stateMutability": "nonpayable",
      "type": "function"
    }
  ],
  "bytecode": "0x60806040523480156200001157600080fd5b5060408051808201825260098152684e6966747920496e6b60b81b602080830191909152825180840190935260068352654e4654494e4b60d01b90830152906200006b6301ffc9a760e01b6001600160e01b036200012716565b815162000080906006906020850190620001c5565b50805162000096906007906020840190620001c5565b50620000b26380ac58cd60e01b6001600160e01b036200012716565b620000cd635b5e139f60e01b6001600160e01b036200012716565b620000e863780e9d6360e01b6001600160e01b036200012716565b505060408051808201909152600c81526b697066733a2f2f697066732f60a01b602082015262000121906001600160e01b03620001ac16565b6200026a565b6001600160e01b0319808216141562000187576040805162461bcd60e51b815260206004820152601c60248201527f4552433136353a20696e76616c696420696e7465726661636520696400000000604482015290519081900360640190fd5b6001600160e01b0319166000908152602081905260409020805460ff19166001179055565b8051620001c1906009906020840190620001c5565b5050565b828054600181600116156101000203166002900490600052602060002090601f016020900481019282601f106200020857805160ff191683800117855562000238565b8280016001018555821562000238579182015b82811115620002385782518255916020019190600101906200021b565b50620002469291506200024a565b5090565b6200026791905b8082111562000246576000815560010162000251565b90565b612d8d806200027a6000396000f3fe608060405234801561001057600080fd5b50600436106101735760003560e01c806361ac6c56116100de578063b88d4fde11610097578063d33234fc11610071578063d33234fc146107a9578063de9ac631146107d5578063e3a697ba1461087b578063e985e9c5146108a157610173565b8063b88d4fde14610614578063c87b56dd146106d8578063d0def521146106f557610173565b806361ac6c561461058b5780636352211e146105935780636c0360eb146105b057806370a08231146105b857806395d89b41146105de578063a22cb465146105e657610173565b806318160ddd1161013057806318160ddd146104165780631a5dfa9a1461043057806323b872dd146104d65780632f745c591461050c57806342842e0e146105385780634f6ccce71461056e57610173565b806301ffc9a71461017857806303925351146101b357806306fdde0314610268578063081812fc146102e5578063095ea7b31461031e57806315d9c8061461034c575b600080fd5b61019f6004803603602081101561018e57600080fd5b50356001600160e01b0319166108cf565b604080519115158252519081900360200190f35b6101d0600480360360208110156101c957600080fd5b50356108f2565b6040518080602001846001600160a01b03166001600160a01b03168152602001838152602001828103825285818151815260200191508051906020019080838360005b8381101561022b578181015183820152602001610213565b50505050905090810190601f1680156102585780820380516001836020036101000a031916815260200191505b5094505050505060405180910390f35b610270610a71565b6040805160208082528351818301528351919283929083019185019080838360005b838110156102aa578181015183820152602001610292565b50505050905090810190601f1680156102d75780820380516001836020036101000a031916815260200191505b509250505060405180910390f35b610302600480360360208110156102fb57600080fd5b5035610b08565b604080516001600160a01b039092168252519081900360200190f35b61034a6004803603604081101561033457600080fd5b506001600160a01b038135169060200135610b6a565b005b6103f06004803603602081101561036257600080fd5b810190602081018135600160201b81111561037c57600080fd5b82018360208201111561038e57600080fd5b803590602001918460018302840111600160201b831117156103af57600080fd5b91908080601f016020809104026020016040519081016040528093929190818152602001838380828437600092019190915250929550610c45945050505050565b604080519384526001600160a01b03909216602084015282820152519081900360600190f35b61041e610e0a565b60408051918252519081900360200190f35b61041e6004803603604081101561044657600080fd5b810190602081018135600160201b81111561046057600080fd5b82018360208201111561047257600080fd5b803590602001918460018302840111600160201b8311171561049357600080fd5b91908080601f0160208091040260200160405190810160405280939291908181526020018383808284376000920191909152509295505091359250610e1b915050565b61034a600480360360608110156104ec57600080fd5b506001600160a01b03813581169160208101359091169060400135611095565b61041e6004803603604081101561052257600080fd5b506001600160a01b0381351690602001356110ec565b61034a6004803603606081101561054e57600080fd5b506001600160a01b0381358116916020810135909116906040013561111b565b61041e6004803603602081101561058457600080fd5b5035611136565b61041e611152565b610302600480360360208110156105a957600080fd5b5035611158565b610270611186565b61041e600480360360208110156105ce57600080fd5b50356001600160a01b03166111e7565b61027061124f565b61034a600480360360408110156105fc57600080fd5b506001600160a01b03813516906020013515156112b0565b61034a6004803603608081101561062a57600080fd5b6001600160a01b03823581169260208101359091169160408201359190810190608081016060820135600160201b81111561066457600080fd5b82018360208201111561067657600080fd5b803590602001918460018302840111600160201b8311171561069757600080fd5b91908080601f0160208091040260200160405190810160405280939291908181526020018383808284376000920191909152509295506113b5945050505050565b610270600480360360208110156106ee57600080fd5b5035611413565b61041e6004803603604081101561070b57600080fd5b6001600160a01b038235169190810190604081016020820135600160201b81111561073557600080fd5b82018360208201111561074757600080fd5b803590602001918460018302840111600160201b8311171561076857600080fd5b91908080601f016020809104026020016040519081016040528093929190818152602001838380828437600092019190915250929550611696945050505050565b61041e600480360360408110156107bf57600080fd5b506001600160a01b038135169060200135611a80565b61041e600480360360408110156107eb57600080fd5b810190602081018135600160201b81111561080557600080fd5b82018360208201111561081757600080fd5b803590602001918460018302840111600160201b8311171561083857600080fd5b91908080601f0160208091040260200160405190810160405280939291908181526020018383808284376000920191909152509295505091359250611aa8915050565b61041e6004803603602081101561089157600080fd5b50356001600160a01b0316611d8a565b61019f600480360360408110156108b757600080fd5b506001600160a01b0381358116916020013516611dab565b6001600160e01b0319811660009081526020819052604090205460ff165b919050565b6000818152600d602052604081206005015460609190819060ff16610959576040805162461bcd60e51b81526020600482015260186024820152777468697320696e6b20646f6573206e6f742065786973742160401b604482015290519081900360640190fd5b610961612a2b565b6000858152600d6020908152604091829020825160c081018452815481526001808301546001600160a01b0316828501526002808401805487516101009482161594909402600019011691909104601f81018690048602830186018752808352929593949386019391929091830182828015610a1e5780601f106109f357610100808354040283529160200191610a1e565b820191906000526020600020905b815481529060010190602001808311610a0157829003601f168201915b50505091835250506003820154602080830191909152600483015460408084019190915260059093015460ff16151560609092019190915290820151908201516080909201519097919650945092505050565b60068054604080516020601f6002600019610100600188161502019095169490940493840181900481028201810190925282815260609390929091830182828015610afd5780601f10610ad257610100808354040283529160200191610afd565b820191906000526020600020905b815481529060010190602001808311610ae057829003601f168201915b505050505090505b90565b6000610b1382611dd9565b610b4e5760405162461bcd60e51b815260040180806020018281038252602c815260200180612c56602c913960400191505060405180910390fd5b506000908152600460205260409020546001600160a01b031690565b6000610b7582611158565b9050806001600160a01b0316836001600160a01b03161415610bc85760405162461bcd60e51b8152600401808060200182810382526021815260200180612d066021913960400191505060405180910390fd5b806001600160a01b0316610bda611dec565b6001600160a01b03161480610bfb5750610bfb81610bf6611dec565b611dab565b610c365760405162461bcd60e51b8152600401808060200182810382526038815260200180612ba96038913960400191505060405180910390fd5b610c408383611df0565b505050565b600080600080600c856040518082805190602001908083835b60208310610c7d5780518252601f199092019160209182019101610c5e565b51815160001960209485036101000a019081169019919091161790529201948552506040519384900301909220549250505080610cfc576040805162461bcd60e51b81526020600482015260186024820152777468697320696e6b20646f6573206e6f742065786973742160401b604482015290519081900360640190fd5b610d04612a2b565b6000828152600d6020908152604091829020825160c081018452815481526001808301546001600160a01b0316828501526002808401805487516101009482161594909402600019011691909104601f81018690048602830186018752808352929593949386019391929091830182828015610dc15780601f10610d9657610100808354040283529160200191610dc1565b820191906000526020600020905b815481529060010190602001808311610da457829003601f168201915b505050918352505060038201546020808301919091526004830154604083015260059092015460ff16151560609091015281015160809091015192979096509194509092505050565b6000610e166002611e5e565b905090565b600080600c846040518082805190602001908083835b60208310610e505780518252601f199092019160209182019101610e31565b51815160001960209485036101000a019081169019919091161790529201948552506040519384900301909220549250505080610ecf576040805162461bcd60e51b81526020600482015260186024820152777468697320696e6b20646f6573206e6f742065786973742160401b604482015290519081900360640190fd5b610ed7612a2b565b6000828152600d6020908152604091829020825160c081018452815481526001808301546001600160a01b0316828501526002808401805487516101009482161594909402600019011691909104601f81018690048602830186018752808352929593949386019391929091830182828015610f945780601f10610f6957610100808354040283529160200191610f94565b820191906000526020600020905b815481529060010190602001808311610f7757829003601f168201915b5050509183525050600382015460208201526004820154604082015260059091015460ff1615156060909101526080810151909150600185011115611020576040805162461bcd60e51b815260206004820181905260248201527f7468697320746f6b656e20696e64657820646f6573206e6f7420657869737421604482015290519081900360640190fd5b61108a84600e876040518082805190602001908083835b602083106110565780518252601f199092019160209182019101611037565b51815160209384036101000a6000190180199092169116179052920194855250604051938490030190922092915050611e69565b925050505b92915050565b6110a66110a0611dec565b82611e75565b6110e15760405162461bcd60e51b8152600401808060200182810382526031815260200180612d276031913960400191505060405180910390fd5b610c40838383611f19565b6001600160a01b0382166000908152600160205260408120611114908363ffffffff611e6916565b9392505050565b610c40838383604051806020016040528060008152506113b5565b60008061114a60028463ffffffff61207716565b509392505050565b600b5481565b600061108f82604051806060016040528060298152602001612c0b602991396002919063ffffffff61209316565b60098054604080516020601f6002600019610100600188161502019095169490940493840181900481028201810190925282815260609390929091830182828015610afd5780601f10610ad257610100808354040283529160200191610afd565b60006001600160a01b03821661122e5760405162461bcd60e51b815260040180806020018281038252602a815260200180612be1602a913960400191505060405180910390fd5b6001600160a01b038216600090815260016020526040902061108f90611e5e565b60078054604080516020601f6002600019610100600188161502019095169490940493840181900481028201810190925282815260609390929091830182828015610afd5780601f10610ad257610100808354040283529160200191610afd565b6112b8611dec565b6001600160a01b0316826001600160a01b0316141561131e576040805162461bcd60e51b815260206004820152601960248201527f4552433732313a20617070726f766520746f2063616c6c657200000000000000604482015290519081900360640190fd5b806005600061132b611dec565b6001600160a01b03908116825260208083019390935260409182016000908120918716808252919093529120805460ff19169215159290921790915561136f611dec565b60408051841515815290516001600160a01b0392909216917f17307eab39ab6107e8899845ad3d59bd9653f200f220920489ca2b5937696c319181900360200190a35050565b6113c66113c0611dec565b83611e75565b6114015760405162461bcd60e51b8152600401808060200182810382526031815260200180612d276031913960400191505060405180910390fd5b61140d848484846120a0565b50505050565b606061141e82611dd9565b6114595760405162461bcd60e51b815260040180806020018281038252602f815260200180612cd7602f913960400191505060405180910390fd5b60008281526008602090815260409182902080548351601f60026000196101006001861615020190931692909204918201849004840281018401909452808452606093928301828280156114ee5780601f106114c3576101008083540402835291602001916114ee565b820191906000526020600020905b8154815290600101906020018083116114d157829003601f168201915b5050505050905060606114ff611186565b9050805160001415611513575090506108ed565b8151156115d45780826040516020018083805190602001908083835b6020831061154e5780518252601f19909201916020918201910161152f565b51815160209384036101000a600019018019909216911617905285519190930192850191508083835b602083106115965780518252601f199092019160209182019101611577565b6001836020036101000a03801982511681845116808217855250505050505090500192505050604051602081830303815290604052925050506108ed565b806115de856120f2565b6040516020018083805190602001908083835b602083106116105780518252601f1990920191602091820191016115f1565b51815160209384036101000a600019018019909216911617905285519190930192850191508083835b602083106116585780518252601f199092019160209182019101611639565b6001836020036101000a0380198251168184511680821785525050505050509050019250505060405160208183030381529060405292505050919050565b600080600c836040518082805190602001908083835b602083106116cb5780518252601f1990920191602091820191016116ac565b51815160001960209485036101000a01908116901991909116179052920194855250604051938490030190922054925050508061174a576040805162461bcd60e51b81526020600482015260186024820152777468697320696e6b20646f6573206e6f742065786973742160401b604482015290519081900360640190fd5b611752612a2b565b6000828152600d6020908152604091829020825160c081018452815481526001808301546001600160a01b0316828501526002808401805487516101009482161594909402600019011691909104601f8101869004860283018601875280835292959394938601939192909183018282801561180f5780601f106117e45761010080835404028352916020019161180f565b820191906000526020600020905b8154815290600101906020018083116117f257829003601f168201915b505050918352505060038201546020808301919091526004830154604083015260059092015460ff1615156060909101528101519091506001600160a01b031633146118a2576040805162461bcd60e51b815260206004820152601960248201527f6f6e6c7920746865206172746973742063616e206d696e742100000000000000604482015290519081900360640190fd5b8060600151816080015110806118ba57506060810151155b61190b576040805162461bcd60e51b815260206004820152601b60248201527f7468697320696e6b206973206f76657220746865206c696d6974210000000000604482015290519081900360640190fd5b80516000908152600d602052604090206004018054600101905561192f600a6121cd565b600061193b600a6121d6565b90506119a781600e876040518082805190602001908083835b602083106119735780518252601f199092019160209182019101611954565b51815160209384036101000a60001901801990921691161790529201948552506040519384900301909220929150506121da565b506119b286826121e6565b6119bc8186612320565b7fcc18f3721677ee1b39a6a1aba1a4dd0fc1f099757b28b28a34de69b652321c208186886040518084815260200180602001836001600160a01b03166001600160a01b03168152602001828103825284818151815260200191508051906020019080838360005b83811015611a3b578181015183820152602001611a23565b50505050905090810190601f168015611a685780820380516001836020036101000a031916815260200191505b5094505050505060405180910390a195945050505050565b6001600160a01b0382166000908152600f60205260408120611114908363ffffffff611e6916565b600080600c846040518082805190602001908083835b60208310611add5780518252601f199092019160209182019101611abe565b6001836020036101000a0380198251168184511680821785525050505050509050019150509081526020016040518091039020541115611b64576040805162461bcd60e51b815260206004820152601860248201527f7468697320696e6b20616c726561647920657869737473210000000000000000604482015290519081900360640190fd5b611b6e600b6121cd565b611b76612a2b565b6040518060c00160405280611b8b600b6121d6565b8152602001336001600160a01b03168152602001858152602001848152602001600081526020016001151581525090508060000151600c856040518082805190602001908083835b60208310611bf25780518252601f199092019160209182019101611bd3565b51815160209384036101000a60001901801990921691161790529201948552506040805194859003820190942094909455505082516000908152600d835281902083518155838301516001820180546001600160a01b0319166001600160a01b039092169190911790559083015180518493611c75926002850192910190612a6c565b50606082015160038201556080820151600482015560a0909101516005909101805460ff19169115159190911790558051336000908152600f60205260409020611cbe916121da565b5080602001516001600160a01b03167f90a9c599b9c49a7972b59bef136dbc1b7356ffa4a59d5b263b35daaae8862c7c8260000151836040015184606001516040518084815260200180602001838152602001828103825284818151815260200191508051906020019080838360005b83811015611d46578181015183820152602001611d2e565b50505050905090810190601f168015611d735780820380516001836020036101000a031916815260200191505b5094505050505060405180910390a2519392505050565b6001600160a01b0381166000908152600f6020526040812061108f90611e5e565b6001600160a01b03918216600090815260056020908152604080832093909416825291909152205460ff1690565b600061108f60028363ffffffff61238316565b3390565b600081815260046020526040902080546001600160a01b0319166001600160a01b0384169081179091558190611e2582611158565b6001600160a01b03167f8c5be1e5ebec7d5bd14f71427d1e84f3dd0314c0f7b2291e5b200ac8c7c3b92560405160405180910390a45050565b600061108f826121d6565b6000611114838361238f565b6000611e8082611dd9565b611ebb5760405162461bcd60e51b815260040180806020018281038252602c815260200180612b7d602c913960400191505060405180910390fd5b6000611ec683611158565b9050806001600160a01b0316846001600160a01b03161480611f015750836001600160a01b0316611ef684610b08565b6001600160a01b0316145b80611f115750611f118185611dab565b949350505050565b826001600160a01b0316611f2c82611158565b6001600160a01b031614611f715760405162461bcd60e51b8152600401808060200182810382526029815260200180612cae6029913960400191505060405180910390fd5b6001600160a01b038216611fb65760405162461bcd60e51b8152600401808060200182810382526024815260200180612b596024913960400191505060405180910390fd5b611fc1838383610c40565b611fcc600082611df0565b6001600160a01b0383166000908152600160205260409020611ff4908263ffffffff6123f316565b506001600160a01b038216600090815260016020526040902061201d908263ffffffff6121da16565b506120306002828463ffffffff6123ff16565b5080826001600160a01b0316846001600160a01b03167fddf252ad1be2c89b69c2b068fc378daa952ba7f163c4a11628f55a4df523b3ef60405160405180910390a4505050565b60008080806120868686612415565b9097909650945050505050565b6000611f11848484612490565b6120ab848484611f19565b6120b78484848461255a565b61140d5760405162461bcd60e51b8152600401808060200182810382526032815260200180612b276032913960400191505060405180910390fd5b60608161211757506040805180820190915260018152600360fc1b60208201526108ed565b8160005b811561212f57600101600a8204915061211b565b60608167ffffffffffffffff8111801561214857600080fd5b506040519080825280601f01601f191660200182016040528015612173576020820181803683370190505b50859350905060001982015b83156121c457600a840660300160f81b828280600190039350815181106121a257fe5b60200101906001600160f81b031916908160001a905350600a8404935061217f565b50949350505050565b80546001019055565b5490565b600061111483836126da565b6001600160a01b038216612241576040805162461bcd60e51b815260206004820181905260248201527f4552433732313a206d696e7420746f20746865207a65726f2061646472657373604482015290519081900360640190fd5b61224a81611dd9565b1561229c576040805162461bcd60e51b815260206004820152601c60248201527f4552433732313a20746f6b656e20616c7265616479206d696e74656400000000604482015290519081900360640190fd5b6122a860008383610c40565b6001600160a01b03821660009081526001602052604090206122d0908263ffffffff6121da16565b506122e36002828463ffffffff6123ff16565b5060405181906001600160a01b038416906000907fddf252ad1be2c89b69c2b068fc378daa952ba7f163c4a11628f55a4df523b3ef908290a45050565b61232982611dd9565b6123645760405162461bcd60e51b815260040180806020018281038252602c815260200180612c82602c913960400191505060405180910390fd5b60008281526008602090815260409091208251610c4092840190612a6c565b60006111148383612724565b815460009082106123d15760405162461bcd60e51b8152600401808060200182810382526022815260200180612b056022913960400191505060405180910390fd5b8260000182815481106123e057fe5b9060005260206000200154905092915050565b6000611114838361273c565b6000611f1184846001600160a01b038516612802565b8154600090819083106124595760405162461bcd60e51b8152600401808060200182810382526022815260200180612c346022913960400191505060405180910390fd5b600084600001848154811061246a57fe5b906000526020600020906002020190508060000154816001015492509250509250929050565b6000828152600184016020526040812054828161252b5760405162461bcd60e51b81526004018080602001828103825283818151815260200191508051906020019080838360005b838110156124f05781810151838201526020016124d8565b50505050905090810190601f16801561251d5780820380516001836020036101000a031916815260200191505b509250505060405180910390fd5b5084600001600182038154811061253e57fe5b9060005260206000209060020201600101549150509392505050565b600061256e846001600160a01b0316612899565b61257a57506001611f11565b60606126a0630a85bd0160e11b61258f611dec565b88878760405160240180856001600160a01b03166001600160a01b03168152602001846001600160a01b03166001600160a01b0316815260200183815260200180602001828103825283818151815260200191508051906020019080838360005b838110156126085781810151838201526020016125f0565b50505050905090810190601f1680156126355780820380516001836020036101000a031916815260200191505b5095505050505050604051602081830303815290604052906001600160e01b0319166020820180516001600160e01b038381831617835250505050604051806060016040528060328152602001612b27603291396001600160a01b038816919063ffffffff61289f16565b905060008180602001905160208110156126b957600080fd5b50516001600160e01b031916630a85bd0160e11b1492505050949350505050565b60006126e68383612724565b61271c5750815460018181018455600084815260208082209093018490558454848252828601909352604090209190915561108f565b50600061108f565b60009081526001919091016020526040902054151590565b600081815260018301602052604081205480156127f8578354600019808301919081019060009087908390811061276f57fe5b906000526020600020015490508087600001848154811061278c57fe5b6000918252602080832090910192909255828152600189810190925260409020908401905586548790806127bc57fe5b6001900381819060005260206000200160009055905586600101600087815260200190815260200160002060009055600194505050505061108f565b600091505061108f565b600082815260018401602052604081205480612867575050604080518082018252838152602080820184815286546001818101895560008981528481209551600290930290950191825591519082015586548684528188019092529290912055611114565b8285600001600183038154811061287a57fe5b9060005260206000209060020201600101819055506000915050611114565b3b151590565b6060611f118484600085856128b385612899565b612904576040805162461bcd60e51b815260206004820152601d60248201527f416464726573733a2063616c6c20746f206e6f6e2d636f6e7472616374000000604482015290519081900360640190fd5b60006060866001600160a01b031685876040518082805190602001908083835b602083106129435780518252601f199092019160209182019101612924565b6001836020036101000a03801982511681845116808217855250505050505090500191505060006040518083038185875af1925050503d80600081146129a5576040519150601f19603f3d011682016040523d82523d6000602084013e6129aa565b606091505b50915091506129ba8282866129c5565b979650505050505050565b606083156129d4575081611114565b8251156129e45782518084602001fd5b60405162461bcd60e51b81526020600482018181528451602484015284518593919283926044019190850190808383600083156124f05781810151838201526020016124d8565b6040518060c001604052806000815260200160006001600160a01b031681526020016060815260200160008152602001600081526020016000151581525090565b828054600181600116156101000203166002900490600052602060002090601f016020900481019282601f10612aad57805160ff1916838001178555612ada565b82800160010185558215612ada579182015b82811115612ada578251825591602001919060010190612abf565b50612ae6929150612aea565b5090565b610b0591905b80821115612ae65760008155600101612af056fe456e756d657261626c655365743a20696e646578206f7574206f6620626f756e64734552433732313a207472616e7366657220746f206e6f6e20455243373231526563656976657220696d706c656d656e7465724552433732313a207472616e7366657220746f20746865207a65726f20616464726573734552433732313a206f70657261746f7220717565727920666f72206e6f6e6578697374656e7420746f6b656e4552433732313a20617070726f76652063616c6c6572206973206e6f74206f776e6572206e6f7220617070726f76656420666f7220616c6c4552433732313a2062616c616e636520717565727920666f7220746865207a65726f20616464726573734552433732313a206f776e657220717565727920666f72206e6f6e6578697374656e7420746f6b656e456e756d657261626c654d61703a20696e646578206f7574206f6620626f756e64734552433732313a20617070726f76656420717565727920666f72206e6f6e6578697374656e7420746f6b656e4552433732314d657461646174613a2055524920736574206f66206e6f6e6578697374656e7420746f6b656e4552433732313a207472616e73666572206f6620746f6b656e2074686174206973206e6f74206f776e4552433732314d657461646174613a2055524920717565727920666f72206e6f6e6578697374656e7420746f6b656e4552433732313a20617070726f76616c20746f2063757272656e74206f776e65724552433732313a207472616e736665722063616c6c6572206973206e6f74206f776e6572206e6f7220617070726f766564a264697066735822122005ab8e4e1326f474bc1ca1ea493aa91623f20502b71697951214532ee63da88f64736f6c63430006070033",
  "linkReferences": {},
  "deployedLinkReferences": {}
}