{
  "_format": "hh-sol-artifact-1",
  "contractName": "SimpleCollectible",
  "sourceName": "contracts/SimpleCollectible.sol",
  "abi": [
    {
      "inputs": [],
      "stateMutability": "nonpayable",
      "type": "constructor"
    },
    {
      "anonymous": false,
      "inputs": [
        {
          "indexed": true,
          "internalType": "address",
          "name": "owner",
          "type": "address"
        },
        {
          "indexed": true,
          "internalType": "address",
          "name": "approved",
          "type": "address"
        },
        {
          "indexed": true,
          "internalType": "uint256",
          "name": "tokenId",
          "type": "uint256"
        }
      ],
      "name": "Approval",
      "type": "event"
    },
    {
      "anonymous": false,
      "inputs": [
        {
          "indexed": true,
          "internalType": "address",
          "name": "owner",
          "type": "address"
        },
        {
          "indexed": true,
          "internalType": "address",
          "name": "operator",
          "type": "address"
        },
        {
          "indexed": false,
          "internalType": "bool",
          "name": "approved",
          "type": "bool"
        }
      ],
      "name": "ApprovalForAll",
      "type": "event"
    },
    {
      "anonymous": false,
      "inputs": [
        {
          "indexed": true,
          "internalType": "address",
          "name": "from",
          "type": "address"
        },
        {
          "indexed": true,
          "internalType": "address",
          "name": "to",
          "type": "address"
        },
        {
          "indexed": true,
          "internalType": "uint256",
          "name": "tokenId",
          "type": "uint256"
        }
      ],
      "name": "Transfer",
      "type": "event"
    },
    {
      "inputs": [],
      "name": "admin",
      "outputs": [
        {
          "internalType": "address",
          "name": "",
          "type": "address"
        }
      ],
      "stateMutability": "view",
      "type": "function"
    },
    {
      "inputs": [
        {
          "internalType": "address",
          "name": "to",
          "type": "address"
        },
        {
          "internalType": "uint256",
          "name": "tokenId",
          "type": "uint256"
        }
      ],
      "name": "approve",
      "outputs": [],
      "stateMutability": "nonpayable",
      "type": "function"
    },
    {
      "inputs": [
        {
          "internalType": "address",
          "name": "owner",
          "type": "address"
        }
      ],
      "name": "balanceOf",
      "outputs": [
        {
          "internalType": "uint256",
          "name": "",
          "type": "uint256"
        }
      ],
      "stateMutability": "view",
      "type": "function"
    },
    {
      "inputs": [
        {
          "internalType": "uint256",
          "name": "tokenId",
          "type": "uint256"
        }
      ],
      "name": "getApproved",
      "outputs": [
        {
          "internalType": "address",
          "name": "",
          "type": "address"
        }
      ],
      "stateMutability": "view",
      "type": "function"
    },
    {
      "inputs": [
        {
          "internalType": "address",
          "name": "owner",
          "type": "address"
        },
        {
          "internalType": "address",
          "name": "operator",
          "type": "address"
        }
      ],
      "name": "isApprovedForAll",
      "outputs": [
        {
          "internalType": "bool",
          "name": "",
          "type": "bool"
        }
      ],
      "stateMutability": "view",
      "type": "function"
    },
    {
      "inputs": [
        {
          "internalType": "address",
          "name": "to",
          "type": "address"
        }
      ],
      "name": "mint",
      "outputs": [],
      "stateMutability": "nonpayable",
      "type": "function"
    },
    {
      "inputs": [],
      "name": "name",
      "outputs": [
        {
          "internalType": "string",
          "name": "",
          "type": "string"
        }
      ],
      "stateMutability": "view",
      "type": "function"
    },
    {
      "inputs": [],
      "name": "nextTokenId",
      "outputs": [
        {
          "internalType": "uint256",
          "name": "",
          "type": "uint256"
        }
      ],
      "stateMutability": "view",
      "type": "function"
    },
    {
      "inputs": [
        {
          "internalType": "uint256",
          "name": "tokenId",
          "type": "uint256"
        }
      ],
      "name": "ownerOf",
      "outputs": [
        {
          "internalType": "address",
          "name": "",
          "type": "address"
        }
      ],
      "stateMutability": "view",
      "type": "function"
    },
    {
      "inputs": [
        {
          "internalType": "address",
          "name": "from",
          "type": "address"
        },
        {
          "internalType": "address",
          "name": "to",
          "type": "address"
        },
        {
          "internalType": "uint256",
          "name": "tokenId",
          "type": "uint256"
        }
      ],
      "name": "safeTransferFrom",
      "outputs": [],
      "stateMutability": "nonpayable",
      "type": "function"
    },
    {
      "inputs": [
        {
          "internalType": "address",
          "name": "from",
          "type": "address"
        },
        {
          "internalType": "address",
          "name": "to",
          "type": "address"
        },
        {
          "internalType": "uint256",
          "name": "tokenId",
          "type": "uint256"
        },
        {
          "internalType": "bytes",
          "name": "_data",
          "type": "bytes"
        }
      ],
      "name": "safeTransferFrom",
      "outputs": [],
      "stateMutability": "nonpayable",
      "type": "function"
    },
    {
      "inputs": [
        {
          "internalType": "address",
          "name": "operator",
          "type": "address"
        },
        {
          "internalType": "bool",
          "name": "approved",
          "type": "bool"
        }
      ],
      "name": "setApprovalForAll",
      "outputs": [],
      "stateMutability": "nonpayable",
      "type": "function"
    },
    {
      "inputs": [
        {
          "internalType": "bytes4",
          "name": "interfaceId",
          "type": "bytes4"
        }
      ],
      "name": "supportsInterface",
      "outputs": [
        {
          "internalType": "bool",
          "name": "",
          "type": "bool"
        }
      ],
      "stateMutability": "view",
      "type": "function"
    },
    {
      "inputs": [],
      "name": "symbol",
      "outputs": [
        {
          "internalType": "string",
          "name": "",
          "type": "string"
        }
      ],
      "stateMutability": "view",
      "type": "function"
    },
    {
      "inputs": [
        {
          "internalType": "uint256",
          "name": "tokenId",
          "type": "uint256"
        }
      ],
      "name": "tokenURI",
      "outputs": [
        {
          "internalType": "string",
          "name": "",
          "type": "string"
        }
      ],
      "stateMutability": "view",
      "type": "function"
    },
    {
      "inputs": [
        {
          "internalType": "address",
          "name": "from",
          "type": "address"
        },
        {
          "internalType": "address",
          "name": "to",
          "type": "address"
        },
        {
          "internalType": "uint256",
          "name": "tokenId",
          "type": "uint256"
        }
      ],
      "name": "transferFrom",
      "outputs": [],
      "stateMutability": "nonpayable",
      "type": "function"
    }
  ],
  "bytecode": "0x60806040523480156200001157600080fd5b506040805180820182526006815265135e4813919560d21b60208083019182528351808501909452600384526213919560ea1b9084015281519192916200005b916000916200008c565b508051620000719060019060208401906200008c565b5050600780546001600160a01b03191633179055506200016f565b8280546200009a9062000132565b90600052602060002090601f016020900481019282620000be576000855562000109565b82601f10620000d957805160ff191683800117855562000109565b8280016001018555821562000109579182015b8281111562000109578251825591602001919060010190620000ec565b50620001179291506200011b565b5090565b5b808211156200011757600081556001016200011c565b6002810460018216806200014757607f821691505b602082108114156200016957634e487b7160e01b600052602260045260246000fd5b50919050565b61159b806200017f6000396000f3fe608060405234801561001057600080fd5b50600436106101005760003560e01c806370a0823111610097578063b88d4fde11610066578063b88d4fde14610207578063c87b56dd1461021a578063e985e9c51461022d578063f851a4401461024057610100565b806370a08231146101c457806375794a3c146101e457806395d89b41146101ec578063a22cb465146101f457610100565b806323b872dd116100d357806323b872dd1461017857806342842e0e1461018b5780636352211e1461019e5780636a627842146101b157610100565b806301ffc9a71461010557806306fdde031461012e578063081812fc14610143578063095ea7b314610163575b600080fd5b610118610113366004610eff565b610248565b6040516101259190610ffb565b60405180910390f35b610136610290565b6040516101259190611006565b610156610151366004610f37565b610322565b6040516101259190610faa565b610176610171366004610ed6565b61036e565b005b610176610186366004610d95565b610406565b610176610199366004610d95565b61043e565b6101566101ac366004610f37565b610459565b6101766101bf366004610d49565b61048e565b6101d76101d2366004610d49565b6104dc565b6040516101259190611428565b6101d7610520565b610136610526565b610176610202366004610e9c565b610535565b610176610215366004610dd0565b610603565b610136610228366004610f37565b610642565b61011861023b366004610d63565b6106c5565b6101566106f3565b60006001600160e01b031982166380ac58cd60e01b148061027957506001600160e01b03198216635b5e139f60e01b145b80610288575061028882610702565b90505b919050565b60606000805461029f906114a0565b80601f01602080910402602001604051908101604052809291908181526020018280546102cb906114a0565b80156103185780601f106102ed57610100808354040283529160200191610318565b820191906000526020600020905b8154815290600101906020018083116102fb57829003601f168201915b5050505050905090565b600061032d8261071b565b6103525760405162461bcd60e51b8152600401610349906112b2565b60405180910390fd5b506000908152600460205260409020546001600160a01b031690565b600061037982610459565b9050806001600160a01b0316836001600160a01b031614156103ad5760405162461bcd60e51b815260040161034990611396565b806001600160a01b03166103bf610738565b6001600160a01b031614806103db57506103db8161023b610738565b6103f75760405162461bcd60e51b81526004016103499061118d565b610401838361073c565b505050565b610417610411610738565b826107aa565b6104335760405162461bcd60e51b8152600401610349906113d7565b61040183838361082f565b61040183838360405180602001604052806000815250610603565b6000818152600260205260408120546001600160a01b0316806102885760405162461bcd60e51b815260040161034990611234565b6007546001600160a01b031633146104b85760405162461bcd60e51b81526004016103499061111d565b6104c48160065461095c565b600680549060006104d4836114db565b919050555050565b60006001600160a01b0382166105045760405162461bcd60e51b8152600401610349906111ea565b506001600160a01b031660009081526003602052604090205490565b60065481565b60606001805461029f906114a0565b61053d610738565b6001600160a01b0316826001600160a01b0316141561056e5760405162461bcd60e51b8152600401610349906110e6565b806005600061057b610738565b6001600160a01b03908116825260208083019390935260409182016000908120918716808252919093529120805460ff1916921515929092179091556105bf610738565b6001600160a01b03167f17307eab39ab6107e8899845ad3d59bd9653f200f220920489ca2b5937696c31836040516105f79190610ffb565b60405180910390a35050565b61061461060e610738565b836107aa565b6106305760405162461bcd60e51b8152600401610349906113d7565b61063c8484848461097a565b50505050565b606061064d8261071b565b6106695760405162461bcd60e51b815260040161034990611347565b60006106736109ad565b9050600081511161069357604051806020016040528060008152506106be565b8061069d846109e4565b6040516020016106ae929190610f7b565b6040516020818303038152906040525b9392505050565b6001600160a01b03918216600090815260056020908152604080832093909416825291909152205460ff1690565b6007546001600160a01b031681565b6001600160e01b031981166301ffc9a760e01b14919050565b6000908152600260205260409020546001600160a01b0316151590565b3390565b600081815260046020526040902080546001600160a01b0319166001600160a01b038416908117909155819061077182610459565b6001600160a01b03167f8c5be1e5ebec7d5bd14f71427d1e84f3dd0314c0f7b2291e5b200ac8c7c3b92560405160405180910390a45050565b60006107b58261071b565b6107d15760405162461bcd60e51b815260040161034990611141565b60006107dc83610459565b9050806001600160a01b0316846001600160a01b031614806108175750836001600160a01b031661080c84610322565b6001600160a01b0316145b80610827575061082781856106c5565b949350505050565b826001600160a01b031661084282610459565b6001600160a01b0316146108685760405162461bcd60e51b8152600401610349906112fe565b6001600160a01b03821661088e5760405162461bcd60e51b8152600401610349906110a2565b610899838383610401565b6108a460008261073c565b6001600160a01b03831660009081526003602052604081208054600192906108cd90849061145d565b90915550506001600160a01b03821660009081526003602052604081208054600192906108fb908490611431565b909155505060008181526002602052604080822080546001600160a01b0319166001600160a01b0386811691821790925591518493918716917fddf252ad1be2c89b69c2b068fc378daa952ba7f163c4a11628f55a4df523b3ef91a4505050565b610976828260405180602001604052806000815250610aff565b5050565b61098584848461082f565b61099184848484610b32565b61063c5760405162461bcd60e51b815260040161034990611019565b60408051808201909152601a81527f687474703a2f2f6c6f63616c686f73743a353030302f6e66742f000000000000602082015290565b606081610a0957506040805180820190915260018152600360fc1b602082015261028b565b8160005b8115610a335780610a1d816114db565b9150610a2c9050600a83611449565b9150610a0d565b60008167ffffffffffffffff811115610a5c57634e487b7160e01b600052604160045260246000fd5b6040519080825280601f01601f191660200182016040528015610a86576020820181803683370190505b5090505b841561082757610a9b60018361145d565b9150610aa8600a866114f6565b610ab3906030611431565b60f81b818381518110610ad657634e487b7160e01b600052603260045260246000fd5b60200101906001600160f81b031916908160001a905350610af8600a86611449565b9450610a8a565b610b098383610c4d565b610b166000848484610b32565b6104015760405162461bcd60e51b815260040161034990611019565b6000610b46846001600160a01b0316610d2c565b15610c4257836001600160a01b031663150b7a02610b62610738565b8786866040518563ffffffff1660e01b8152600401610b849493929190610fbe565b602060405180830381600087803b158015610b9e57600080fd5b505af1925050508015610bce575060408051601f3d908101601f19168201909252610bcb91810190610f1b565b60015b610c28573d808015610bfc576040519150601f19603f3d011682016040523d82523d6000602084013e610c01565b606091505b508051610c205760405162461bcd60e51b815260040161034990611019565b805181602001fd5b6001600160e01b031916630a85bd0160e11b149050610827565b506001949350505050565b6001600160a01b038216610c735760405162461bcd60e51b81526004016103499061127d565b610c7c8161071b565b15610c995760405162461bcd60e51b81526004016103499061106b565b610ca560008383610401565b6001600160a01b0382166000908152600360205260408120805460019290610cce908490611431565b909155505060008181526002602052604080822080546001600160a01b0319166001600160a01b03861690811790915590518392907fddf252ad1be2c89b69c2b068fc378daa952ba7f163c4a11628f55a4df523b3ef908290a45050565b3b151590565b80356001600160a01b038116811461028b57600080fd5b600060208284031215610d5a578081fd5b6106be82610d32565b60008060408385031215610d75578081fd5b610d7e83610d32565b9150610d8c60208401610d32565b90509250929050565b600080600060608486031215610da9578081fd5b610db284610d32565b9250610dc060208501610d32565b9150604084013590509250925092565b60008060008060808587031215610de5578081fd5b610dee85610d32565b93506020610dfd818701610d32565b935060408601359250606086013567ffffffffffffffff80821115610e20578384fd5b818801915088601f830112610e33578384fd5b813581811115610e4557610e45611536565b604051601f8201601f1916810185018381118282101715610e6857610e68611536565b60405281815283820185018b1015610e7e578586fd5b81858501868301379081019093019390935250939692955090935050565b60008060408385031215610eae578182fd5b610eb783610d32565b915060208301358015158114610ecb578182fd5b809150509250929050565b60008060408385031215610ee8578182fd5b610ef183610d32565b946020939093013593505050565b600060208284031215610f10578081fd5b81356106be8161154c565b600060208284031215610f2c578081fd5b81516106be8161154c565b600060208284031215610f48578081fd5b5035919050565b60008151808452610f67816020860160208601611474565b601f01601f19169290920160200192915050565b60008351610f8d818460208801611474565b835190830190610fa1818360208801611474565b01949350505050565b6001600160a01b0391909116815260200190565b6001600160a01b0385811682528416602082015260408101839052608060608201819052600090610ff190830184610f4f565b9695505050505050565b901515815260200190565b6000602082526106be6020830184610f4f565b60208082526032908201527f4552433732313a207472616e7366657220746f206e6f6e20455243373231526560408201527131b2b4bb32b91034b6b83632b6b2b73a32b960711b606082015260800190565b6020808252601c908201527f4552433732313a20746f6b656e20616c7265616479206d696e74656400000000604082015260600190565b60208082526024908201527f4552433732313a207472616e7366657220746f20746865207a65726f206164646040820152637265737360e01b606082015260800190565b60208082526019908201527f4552433732313a20617070726f766520746f2063616c6c657200000000000000604082015260600190565b6020808252600a908201526937b7363c9030b236b4b760b11b604082015260600190565b6020808252602c908201527f4552433732313a206f70657261746f7220717565727920666f72206e6f6e657860408201526b34b9ba32b73a103a37b5b2b760a11b606082015260800190565b60208082526038908201527f4552433732313a20617070726f76652063616c6c6572206973206e6f74206f7760408201527f6e6572206e6f7220617070726f76656420666f7220616c6c0000000000000000606082015260800190565b6020808252602a908201527f4552433732313a2062616c616e636520717565727920666f7220746865207a65604082015269726f206164647265737360b01b606082015260800190565b60208082526029908201527f4552433732313a206f776e657220717565727920666f72206e6f6e657869737460408201526832b73a103a37b5b2b760b91b606082015260800190565b6020808252818101527f4552433732313a206d696e7420746f20746865207a65726f2061646472657373604082015260600190565b6020808252602c908201527f4552433732313a20617070726f76656420717565727920666f72206e6f6e657860408201526b34b9ba32b73a103a37b5b2b760a11b606082015260800190565b60208082526029908201527f4552433732313a207472616e73666572206f6620746f6b656e2074686174206960408201526839903737ba1037bbb760b91b606082015260800190565b6020808252602f908201527f4552433732314d657461646174613a2055524920717565727920666f72206e6f60408201526e3732bc34b9ba32b73a103a37b5b2b760891b606082015260800190565b60208082526021908201527f4552433732313a20617070726f76616c20746f2063757272656e74206f776e656040820152603960f91b606082015260800190565b60208082526031908201527f4552433732313a207472616e736665722063616c6c6572206973206e6f74206f6040820152701ddb995c881b9bdc88185c1c1c9bdd9959607a1b606082015260800190565b90815260200190565b600082198211156114445761144461150a565b500190565b60008261145857611458611520565b500490565b60008282101561146f5761146f61150a565b500390565b60005b8381101561148f578181015183820152602001611477565b8381111561063c5750506000910152565b6002810460018216806114b457607f821691505b602082108114156114d557634e487b7160e01b600052602260045260246000fd5b50919050565b60006000198214156114ef576114ef61150a565b5060010190565b60008261150557611505611520565b500690565b634e487b7160e01b600052601160045260246000fd5b634e487b7160e01b600052601260045260246000fd5b634e487b7160e01b600052604160045260246000fd5b6001600160e01b03198116811461156257600080fd5b5056fea2646970667358221220b88f42ec61d3cec70b7bd525ab7a9ba6c59f002098669271797ca091b5222fe764736f6c63430008000033",
  "linkReferences": {},
  "deployedLinkReferences": {}
}