{
  "_format": "hh-sol-artifact-1",
  "contractName": "NFTDex",
  "sourceName": "contracts/NFTDex.sol",
  "abi": [
    {
      "inputs": [
        {
          "internalType": "address",
          "name": "_currencyTokenAddress",
          "type": "address"
        },
        {
          "internalType": "address",
          "name": "_itemTokenAddress",
          "type": "address"
        }
      ],
      "stateMutability": "nonpayable",
      "type": "constructor"
    },
    {
      "anonymous": false,
      "inputs": [
        {
          "indexed": false,
          "internalType": "uint256",
          "name": "ad",
          "type": "uint256"
        },
        {
          "indexed": false,
          "internalType": "bytes32",
          "name": "status",
          "type": "bytes32"
        }
      ],
      "name": "TradeStatusChange",
      "type": "event"
    },
    {
      "inputs": [
        {
          "internalType": "uint256",
          "name": "_trade",
          "type": "uint256"
        }
      ],
      "name": "cancelTrade",
      "outputs": [],
      "stateMutability": "nonpayable",
      "type": "function"
    },
    {
      "inputs": [
        {
          "internalType": "uint256",
          "name": "_trade",
          "type": "uint256"
        }
      ],
      "name": "executeTrade",
      "outputs": [],
      "stateMutability": "nonpayable",
      "type": "function"
    },
    {
      "inputs": [
        {
          "internalType": "uint256",
          "name": "_trade",
          "type": "uint256"
        }
      ],
      "name": "getTrade",
      "outputs": [
        {
          "internalType": "address",
          "name": "",
          "type": "address"
        },
        {
          "internalType": "uint256",
          "name": "",
          "type": "uint256"
        },
        {
          "internalType": "uint256",
          "name": "",
          "type": "uint256"
        },
        {
          "internalType": "bytes32",
          "name": "",
          "type": "bytes32"
        }
      ],
      "stateMutability": "view",
      "type": "function"
    },
    {
      "inputs": [
        {
          "internalType": "uint256",
          "name": "_item",
          "type": "uint256"
        },
        {
          "internalType": "uint256",
          "name": "_price",
          "type": "uint256"
        }
      ],
      "name": "openTrade",
      "outputs": [],
      "stateMutability": "nonpayable",
      "type": "function"
    },
    {
      "inputs": [
        {
          "internalType": "uint256",
          "name": "",
          "type": "uint256"
        }
      ],
      "name": "trades",
      "outputs": [
        {
          "internalType": "address",
          "name": "poster",
          "type": "address"
        },
        {
          "internalType": "uint256",
          "name": "item",
          "type": "uint256"
        },
        {
          "internalType": "uint256",
          "name": "price",
          "type": "uint256"
        },
        {
          "internalType": "bytes32",
          "name": "status",
          "type": "bytes32"
        }
      ],
      "stateMutability": "view",
      "type": "function"
    }
  ],
  "bytecode": "0x608060405234801561001057600080fd5b506040516107b03803806107b08339818101604052604081101561003357600080fd5b508051602090910151600080546001600160a01b039384166001600160a01b0319918216178255600180549490931693169290921790556003556107348061007c6000396000f3fe608060405234801561001057600080fd5b50600436106100575760003560e01c806302d2838b1461005c57806309ec6cc71461007b5780630c493fba146100985780631e6c598e146100bb5780632db25e0514610108575b600080fd5b6100796004803603602081101561007257600080fd5b5035610125565b005b6100796004803603602081101561009157600080fd5b503561032e565b610079600480360360408110156100ae57600080fd5b50803590602001356104ee565b6100d8600480360360208110156100d157600080fd5b5035610618565b604080516001600160a01b0390951685526020850193909352838301919091526060830152519081900360800190f35b6100d86004803603602081101561011e57600080fd5b503561064b565b61012d6106b1565b50600081815260026020818152604092839020835160808101855281546001600160a01b03168152600182015492810192909252918201549281019290925260030154606082018190526327b832b760e11b146101c6576040805162461bcd60e51b81526020600482015260126024820152712a3930b2329034b9903737ba1027b832b71760711b604482015290519081900360640190fd5b60008054825160408085015181516323b872dd60e01b81523360048201526001600160a01b0393841660248201526044810191909152905191909216926323b872dd92606480820193602093909283900390910190829087803b15801561022c57600080fd5b505af1158015610240573d6000803e3d6000fd5b505050506040513d602081101561025657600080fd5b50506001546020820151604080516323b872dd60e01b81523060048201523360248201526044810192909252516001600160a01b03909216916323b872dd9160648082019260009290919082900301818387803b1580156102b657600080fd5b505af11580156102ca573d6000803e3d6000fd5b50505060008381526002602090815260409182902067115e1958dd5d195960c21b600390910181905582518681529182015281517f4d38ed2c5ea671a5ccddc331f0ebebd94a60aaf6e572543497485d4d148f9edf93509081900390910190a15050565b6103366106b1565b50600081815260026020818152604092839020835160808101855281546001600160a01b0316808252600183015493820193909352928101549383019390935260039092015460608201529033146103bf5760405162461bcd60e51b81526004018080602001828103825260268152602001806106d96026913960400191505060405180910390fd5b80606001516327b832b760e11b14610413576040805162461bcd60e51b81526020600482015260126024820152712a3930b2329034b9903737ba1027b832b71760711b604482015290519081900360640190fd5b60015481516020830151604080516323b872dd60e01b81523060048201526001600160a01b03938416602482015260448101929092525191909216916323b872dd91606480830192600092919082900301818387803b15801561047557600080fd5b505af1158015610489573d6000803e3d6000fd5b5050506000838152600260209081526040918290206810d85b98d95b1b195960ba1b600390910181905582518681529182015281517f4d38ed2c5ea671a5ccddc331f0ebebd94a60aaf6e572543497485d4d148f9edf93509081900390910190a15050565b600154604080516323b872dd60e01b81523360048201523060248201526044810185905290516001600160a01b03909216916323b872dd9160648082019260009290919082900301818387803b15801561054757600080fd5b505af115801561055b573d6000803e3d6000fd5b50506040805160808101825233815260208082018781528284018781526327b832b760e11b60608501818152600380546000908152600280885290899020975188546001600160a01b0319166001600160a01b0390911617885594516001808901919091559351948701949094555194830194909455815490810190915583519081529081019190915281517f4d38ed2c5ea671a5ccddc331f0ebebd94a60aaf6e572543497485d4d148f9edf9450908190039091019150a15050565b600260208190526000918252604090912080546001820154928201546003909201546001600160a01b0390911692919084565b6000806000806106596106b1565b5050506000928352505060026020818152604092839020835160808101855281546001600160a01b03168082526001830154938201849052938201549481018590526003909101546060909101819052919390929190565b6040805160808101825260008082526020820181905291810182905260608101919091529056fe54726164652063616e2062652063616e63656c6c6564206f6e6c7920627920706f737465722ea264697066735822122000f85489e71d82e592c50cf254f0af274a1ed64b64cffb8b2937ec268169a2c764736f6c63430006020033",
  "linkReferences": {},
  "deployedLinkReferences": {}
}